:100000007D0075A40075910075840075D000E4C36F
:100010001200BA12004FEDF4A2E092A6A2E192877C
:10002000A2E292A5A2E39286C330823C30A01430B3
:10003000810830A37D30943F80D9ED2401FD3081CB
:10004000FD80D0C3ED9401FD30A0FDC2D680C42058
:10005000D60420D70A22C2D67D0012009F80F6C2A5
:10006000D77D0F12009F80EDED2401FD120090124C
:100070000090120090809CEDFC609812009F12008E
:1000800090DCF8808E78E6000000000000D8F822AE
:1000900078FF797D000000000000D9F8D8F4227FB5
:1000A000FFD297C2A7120085D2A7C297120085DFA0
:1000B000F0227D0012009F020013C2A4120090C221
:1000C00085120090C2A7120090C284120090C2A6AE
:1000D000120090C287120090C2A5120090C2961220
:1000E0000090C286120090D296120090D284120024
:1000F00090D2A6120090D287120090D2A512009042
:10010000D286120090D2A4120090D285120090D212
:05011000A7120090227F
:00000001FF
